:1000000012C024C023C022C021C020C01FC01EC0F7
:100010001DC01CC01BC01AC019C018C017C016C014
:1000200015C014C013C011241FBECFE5D4E0DEBF3D
:10003000CDBF10E0A0E6B0E0EAEAF1E002C0059032
:100040000D92AA38B107D9F79CD0ADC0D9CF40E006
:1000500050E00BC000002F5F3F4F02C020E030E0B7
:100060002E313105B8F34F5F5F4F48175907B0F392
:10007000089585B3806285BB81E090E0E8DF85B3B9
:100080008F7D85BB81E090E0E2DF0895CF93C82F9C
:1000900085B3807F85BB85B39C2F92959F70892BFC
:1000A00085BBE7DFCF7085B3807F85BB85B3C82B69
:1000B000C5BBDFDFCF9108950F931F93CF93DF93DD
:1000C000CDB7DEB72A970FB6F894DEBF0FBECDBF0F
:1000D0008AE0E0E6F0E0DE01119601900D928A954B
:1000E000E1F785B38F7E85BB00E010E00AC0E1E058
:1000F000F0E0EC0FFD1FE00FF11F8081C7DF0F5F05
:100100001F4F0A3011059CF385B3806185BB2A9689
:100110000FB6F894DEBF0FBECDBFDF91CF911F9118
:100120000F910895EF92FF920F931F93CF93DF9358
:100130007C0185B38F7E85BB613019F480E8A6DF32
:1001400002C080ECA3DF85B3806185BBF70101901D
:100150000020E9F731978F010E191F09C0E0D0E0A8
:1001600006C0F701EC0FFD1F808190DF2196C017BC
:10017000D107BCF3DF91CF911F910F91FF90EF90CA
:1001800008958FE384BB84EF91E061DF95DF88EC15
:1001900090E05DDF61E08AE690E0C4DF62E088E73E
:0A01A00090E0C0DFFFCFF894FFCF1E
:1001AA004303030228010C0602022048692054680E
:1001BA006572652E2E2E2E004369726375697473FB
:0A01CA0034596F752E636F6D00004D
:00000001FF
