:100000000C945D000C9485000C9485000C94850084
:100010000C9485000C9485000C9485000C9485004C
:100020000C9485000C9485000C9485000C9485003C
:100030000C9485000C9485000C9485000C9485002C
:100040000C9409010C9485000C9485000C94850097
:100050000C9485000C9485000C9485000C9485000C
:100060000C9485000C94850000000008000201003B
:100070000003040700000000000000000102040863
:100080001020408001020408102001020408102002
:10009000040404040404040402020202020203032E
:1000A0000303030300000000250028002B000000CC
:1000B0000000240027002A00A10011241FBECFEF5A
:1000C000D8E0DEBFCDBF11E0A0E0B1E0EAE8F7E0A4
:1000D00002C005900D92AC32B107D9F721E0ACE235
:1000E000B1E001C01D92AD34B207E1F710E0CDE5FB
:1000F000D0E004C02197FE010E94BD03CC35D1079A
:10010000C9F70E94B5000C94C3030C94000020E0D2
:1001100042E060E18CE291E00E945E0260E071E00A
:100120008CE291E00E94070141E060E08CE291E006
:100130000E94430261E171E08CE291E00C940701BE
:100140000895CF92EF920F9382E0C82E93E0E92EAC
:1001500004E025E04BE06CE08CE291E00E940303B8
:100160000F91EF90CF90089508950E945E010E9434
:10017000B4000E948700C0E0D0E00E94A000209759
:10018000E1F30E940000F9CF80E090E00895089527
:10019000CF92DF92EF92FF920F931F93CF93DF9353
:1001A0006C017A018B01C0E0D0E0CE15DF0581F053
:1001B000D8016D918D01D601ED91FC910190F081F6
:1001C000E02DC6010995892B11F02196EECF7E0115
:1001D000C701DF91CF911F910F91FF90EF90DF90BA
:1001E000CF9008956115710579F0FB010190002011
:1001F000E9F73197AF01461B570BDC01ED91FC91FC
:100200000280F381E02D099480E090E008950C9441
:10021000F2001F920F920FB60F9211242F933F936B
:100220008F939F93AF93BF93809145019091460127
:10023000A0914701B09148013091440123E0230F80
:100240002D3720F40196A11DB11D05C026E8230F0E
:100250000296A11DB11D2093440180934501909306
:100260004601A0934701B0934801809149019091C4
:100270004A01A0914B01B0914C010196A11DB11D05
:100280008093490190934A01A0934B01B0934C0194
:10029000BF91AF919F918F913F912F910F900FBE82
:1002A0000F901F9018958230910538F0880F991F94
:1002B000880F991F05970197F1F70895789484B5F1
:1002C000826084BD84B5816084BD85B5826085BD52
:1002D00085B5816085BDEEE6F0E080818160808338
:1002E000E1E8F0E01082808182608083808181601B
:1002F0008083E0E8F0E0808181608083E1EBF0E0E2
:10030000808184608083E0EBF0E080818160808385
:10031000EAE7F0E08081846080838081826080836E
:100320008081816080838081806880831092C10099
:100330000895CF93DF93EC0160E08E810E948E03DD
:1003400081E090E00E94530161E08E810E948E0363
:1003500081E090E00E94530160E08E810E948E0354
:1003600084E690E0DF91CF910C945301CF92DF921D
:10037000EF92FF920F931F93CF93DF936C017C0159
:1003800087E0E80EF11CC0E0D0E0062F10E0B801D5
:100390000C2E02C0759567950A94E2F76170F7011B
:1003A00081917F010E948E032196C430D10579F797
:1003B000C601DF91CF911F910F91FF90EF90DF90D9
:1003C000CF900C949901CF92DF92EF92FF920F930E
:1003D0001F93CF93DF936C017C0187E0E80EF11C43
:1003E000C0E0D0E0062F10E0B8010C2E02C07595D9
:1003F00067950A94E2F76170F70181917F010E948D
:100400008E032196C830D10579F7C601DF91CF91CF
:100410001F910F91FF90EF90DF90CF900C94990176
:100420001F93CF93DF93EC01162F642F8C810E94D2
:100430008E038D818F3F19F060E00E948E038F85BF
:10044000612F84FF06C0CE01DF91CF911F910C94E4
:10045000E30170E084E0759567958A95E1F7CE0138
:100460000E94B601612FCE01DF91CF911F910C94B4
:10047000B60140E00C94100261E00E94390280ED68
:1004800097E00C945301FC01443008F043E0838969
:10049000481710F04FEF480FDF01A40FB11D54961D
:1004A0009C91690F6068CF010C943902FC0160894E
:1004B000262F2460208B6C600C943902EF92FF92FF
:1004C0000F931F93CF93DF93EC01423018F08F8589
:1004D00088608F874B8B1C8A80E48D8B6E8B70E0DD
:1004E000605C7F4F6F8B222329F0413019F48F8598
:1004F00084608F8761E08C810E9452038D818F3FE1
:1005000019F061E00E94520361E08E810E94520363
:100510007E0187E0E80EF11C00E010E08F8584FD8D
:1005200003C084E090E002C088E090E0081719075B
:100530004CF461E0F70181917F010E9452030F5F4B
:100540001F4FECCF80E593EC0E94530160E08C815B
:100550000E948E0360E08E810E948E038D818F3F0A
:1005600019F060E00E948E036F8564FD1DC063E09A
:10057000CE010E94B60184E991E10E94530163E03B
:10058000CE010E94B60184E991E10E94530163E02B
:10059000CE010E94B60186E990E00E94530162E01C
:1005A000CE010E94B60116C06062CE010E943902DF
:1005B00084E991E10E9453016F856062CE010E943F
:1005C000390286E990E00E9453016F856062CE0196
:1005D0000E9439026F856062CE010E94390284E078
:1005E000888BCE010E945602CE010E943C0282E01E
:1005F000898B66E0CE01DF91CF911F910F91FF9023
:10060000EF900C943902CF92EF920F93FC0113827A
:10061000128284E291E09183808364838FEF8583EB
:10062000468327830087E186C28613861486158653
:100630001686178620E041E060E1CF010F91EF9030
:10064000CF900C945E0241E00E94100281E090E0A5
:100650000895833081F028F4813099F08230A1F040
:1006600008958730A9F08830B9F08430D1F48091B2
:1006700080008F7D03C0809180008F778093800001
:10068000089584B58F7702C084B58F7D84BD0895A9
:100690008091B0008F7703C08091B0008F7D8093F0
:1006A000B0000895CF93DF9390E0FC01E458FF4F32
:1006B0002491FC01E057FF4F8491882361F190E081
:1006C000880F991FFC01E255FF4FC591D491FC01A1
:1006D000EC55FF4FA591B491611109C09FB7F894F3
:1006E0008881209582238883EC912E230BC0623071
:1006F00061F49FB7F8948881322F309583238883E3
:10070000EC912E2B2C939FBF06C08FB7F894E881F5
:100710002E2B28838FBFDF91CF9108951F93CF9306
:10072000DF93282F30E0F901E859FF4F8491F90158
:10073000E458FF4FD491F901E057FF4FC491CC2307
:10074000C1F0162F81110E942903EC2FF0E0EE0F6B
:10075000FF1FEC55FF4FA591B4919FB7F89411116D
:1007600004C08C91D095D82302C0EC91DE2BDC9391
:100770009FBFDF91CF911F910895EE0FFF1F05904E
:0A078000F491E02D0994F894FFCFE6
:10078A00486F6D654D6164652041726475696E6F6D
:10079A0000436972637569742044696765737400FC
:0C07AA00000000002303C800C400C700CA
:00000001FF
