:100000000C942A000C943F000C943F000C943F0089
:100010000C943F000C943F000C943F000C943F0064
:100020000C943F000C943F000C943F000C943F0054
:100030000C943F000C943F000C943F000C943F0044
:100040000C943F000C943F000C943F000C943F0034
:100050000C943F0011241FBECFE5D8E0DEBFCDBF1A
:1000600011E0A0E6B0E0E2E3F1E002C005900D92FD
:10007000A030B107D9F70E9441000C9497000C946E
:100080000000CF93DF93CDB7DEB7C05AD1090FB6CA
:10009000F894DEBF0FBECDBF8FEF81BB8ABB84BBA0
:1000A00088E9E0E6F0E0DE01119601900D928A9574
:1000B000E1F788E0E8EFF0E0DE01A756BF4F0190DE
:1000C0000D928A95E1F740E050E02DC0E9E9F0E0BB
:1000D000EC0FFD1FE80FF91F2081209525BBDA01E9
:1000E000A80FB91F21E030E02C0F3D1FA20FB31F56
:1000F0002C912BBBACECBAE01197F1F700C00000DB
:10010000208125BB019602C080E090E088309105F7
:10011000ECF26F5F7F4F02C060E070E06431710508
:100120009CF34F5F5F4F4E385105B4F3CCCFF8943A
:02013000FFCFFF
:10013200000000000000000000000000C3C3C3C3B1
:10014200E77E3C0000C3C3C3FFFFC3C3C300007903
:10015200FBDFDEDCD8FFFF000000C3C3C3C3E77EC2
:100162003C0000FEFF03030303FFFE0000C3C3C302
:10017200FFFFC3C3C30000C0C0C0FFFFC0C0C000B8
:1001820000007EBDC3C3C3FFFF0000C3C3C3FFFFA4
:10019200C3C3C300001FDFD8DBDBDBFFFF000000AF
:1001A200DBDBDBDBDBFFFF0000CEDFDBDBDBDBFBF4
:1001B200730000C0C0C0FFFFC0C0C000000000004C
:1001C200000000000000000001020408102040802E
:00000001FF
