:100000002AC0FECFFDCFFCCFFBCFFACFF9CFF8CF80
:10001000F7CFF6CFF5CFF4CFF3CFF2CFF1CFF0CFCC
:10002000EFCFEECFEDCF414320416D6D657465722A
:1000300000616D70730001002D4E414E00494E4627
:1000400000000B006001260005006B01310001007B
:100050007E0136000000F894EE27ECBBF1E0FBBF18
:10006000EBBFE5BF8DE0A2E0BB27ED938A95E9F7F2
:1000700080E094E0A0E6ED930197E9F7E2E4F0E098
:1000800085919591009761F0A591B5910590159096
:10009000BF01F00105900D920197E1F7FB01F0CF50
:1000A000EFE5EDBFE4E0EEBFC0E6D1E05DC0AA93AE
:1000B000969A02C0AA939698E8819CD1E881E2952D
:1000C000E07FE88397D1E0E0F0E0219608959BD1AE
:1000D0001A9310E09BD1EC91E03029F097D1AC91CC
:1000E000E6DF1F5FF7CF188123960895A2E0E2DFD5
:1000F000A8E2E0DFACE0DEDFA1E0DCDFA6E0DADFF3
:100100000895AA932497E0E8E883E0ECE983E4E922
:10011000EA83E4EDEB83EC81F0E03197DE01AE0F92
:10012000BF1FEC91AD81AE0FA150C4DF88EC90E011
:100130000197F1F726960895E0E4E7B9E7E8E6B914
:10014000089561D1E881F981E770F070E883F9835F
:10015000E7B1E87FA881EA2BE7B9369A3699FECF56
:10016000E4B1F5B122960895EF97689700E010E0AA
:1001700020E030E040E050E0E0E0E4BBEFEFE7BB40
:10018000E1BBB4DFE1E0EA93A1E0BBDFA0E6B1E0D0
:100190009EDFD2DF00E010E00932E0E01E077CF4D1
:1001A0003BD1EA0FFB1FFF93EF93A1E0B0E0C9DF63
:1001B000AF91BF91ED93FC930F5F1F4FEDCF4D813A
:1001C0005E8100E010E00932E0E01E077CF424D1FB
:1001D000AE0FBF1F35D34E175F072CF41DD1AE0FE6
:1001E000BF1F4D915C910F5F1F4FEDCF2A01F201B0
:1001F00019D1A0E0B0E080E69BE362D2E0937A01FF
:10020000F0937B0160937C0170937D010ED197D1B7
:100210002F010BD128D3E2E0EA93A0E7B1E04FD061
:10022000E1E0EA93A2E06DDFA0E7B1E050DFABE6EA
:10023000B1E04DDFACEBB2E043D1ACCFFFCF18D390
:100240007B816A81F981E88177FB770F67FD7160B7
:10025000972F9E5781F078F0983190F4AA27BB270A
:10026000882708948795B795A7959A95D1F7EA239B
:10027000FB23682305C0E8947727EE27FF2766272E
:100280006F77769508F4606877F9A991B9918991AB
:100290009991EA17FB076807790797FB0895E8D259
:1002A000D8D2CDDFDBD211F4C9D007C0EEF7C6D06B
:1002B000A0E0B0E080E89FE3ACD124960895A3D0FD
:1002C0002497E0E0E883E983EA83EFE3EB83E2D27B
:1002D000EB85FC85EF3FAFEFFA0729F4B1D0A8E337
:1002E000B0E07CD078C0EF3FAFE7FA0729F4A8D0A0
:1002F000A9E3B0E073D06FC0AC85AA2332F4A5D0D7
:10030000E9D0A8D0ACD0EDE2EC93A885A73010F0EE
:10031000E6E0E8871885E12F1150E03021F0A6D003
:10032000AAD0AFD0F8CFB2D07BD194D010E0E0E02B
:10033000F0E060E87FE3A5D0A9D055D260F096D078
:10034000AED09FD01F5F173228F07AD0ADE3B0E077
:1003500045D041C0F1CF103021F481D0E0E3EC93DF
:100360001DC0E12F1150E030C9F080D084D0A0E052
:10037000B0E080E09FE354D1DF01CB0190DF81D07A
:1003800085D0ECD1DAD00E2F6AD08FD06FD04AD082
:1003900097D191D072D23DD15DD0E3CFE885E030E6
:1003A000B1F05DD0EEE2EC93E885E150E887EF5FD5
:1003B00071F081D074D04ED048D0BFD00E2F4FD026
:1003C00074D079D02FD059D224D144D0EDCFAE8182
:1003D000BF81E0E0EC9361D22D96089514D0E991AD
:1003E000F991A991B991CD0105900D920020E1F705
:1003F000FC010895E8BB979AA1E0B0E061D097981E
:10040000A1E0B0E05DC0BA93AA930895A981BA8132
:10041000EE27A10FBE1F0895F801DE011596EE0F1D
:10042000FF1F089508D2C2D00895E0917A01F0919B
:100430007B0160917C0170917D01089505D2089542
:10044000EE81FF81FA93EA930895E985FA856B8539
:100450007C850895E987FA876B877C870895AE814C
:10046000BF811196AE83BF8311970895AA81BB8186
:100470008C819D810895EDECFCEC6CEC7DE320D14A
:100480000895EA83FB836C837D830895EA81FB8171
:100490006C817D81A985BA858B859C850895E0E076
:1004A000F0E060E271E40CD10895E02FE05DEC93A0
:1004B000E02FF0E00895A985BA858B859C85089585
:1004C000109639F080ED97E00197F1F7A895119714
:1004D000C9F7089530976040704009F0705808954A
:1004E000552342F4503811F4E0FF04C03196691FDF
:1004F000791F6BF050E8572711F45F93CFC05F3F2F
:1005000031F0660F000C57956795752F08955F932E
:1005100000200AF0CFC0C8C050E8192E1522880F5D
:10052000991F9527550F879550E8072E0522660FCE
:10053000771F7527550F67950895689401C0E89453
:100540005F93F2DF703818F07F3F08F4A7C056E1E0
:10055000571BAAF4519558300EF4593030F0EFEF94
:10056000FFEF6FEF7FE777F91AC077275523B9F0D0
:10057000EE0FFF1F661F771F5A95D1F710C0772720
:10058000583028F0EF2FF62F672F5850F9CF55230A
:1005900031F076956795F795E7955A95D1F7002054
:1005A0000AF441D15F910895689401C0E8943097AE
:1005B00060407040B1F0002426F0772312F40094DC
:1005C00032D1172E7EE1112032F07A95EE0FFF1F07
:1005D000661F111CF9CFEF2FF62F612D5F938ADF75
:1005E0005F9108954F93AF01FD01DA01AB01BC01AA
:1005F000CA01402D012C142E4F910895EA0FFB1FC4
:10060000681F0895E095F0956095EF5FFF4F6F4F7D
:1006100008955F9381DF903871F150E8152604C08A
:100620005F937ADF903839F1703821F1572F591BD9
:100630002BF112F4D7DFFACF583118F0AA27BB27D5
:100640008827583028F0AB2FB82F88275850F9CF7B
:10065000552329F08695B795A7955A95D9F7502D2A
:10066000512572F0CBDF38F46795F795E7957395D0
:1006700013F420C0B7DF3EDF5F910895D8F7FBCFBA
:10068000EA1BFB0B680B51F010F40094BBDF6623F0
:1006900092F3EE0FFF1F661F7A95CBF7EE27FF2729
:1006A000662777275F910895EFEFFFEF6FE77FEF02
:1006B0005F910895EFEFFFEF6FE77FE75F91089598
:1006C0005F932ADF703851F3903841F30124089486
:1006D000791F23F41CF300203AF3ECCF0F921F9301
:1006E0002F933F934F93112722279927689FA001AB
:1006F0008F9F302D410D591F6B9F300D411D591F8C
:100700008E9F27D0BF9F25D06A9F23D0BE9F1DD02C
:10071000AF9F1BD0AE9F110D291F391F491F591FB5
:10072000E32FF42F652F522F4F913F912F911F915F
:100730000F9066232AF0550FEE1FFF1F661F02C0A1
:1007400073954BF2CDDE5F910895100D211D391F79
:1007500002C0200D311D491F591F08955F93DCDE33
:10076000703821F411200AF49FCFA4CF903809F4F7
:1007700095CF01240894970B1BF4D4F30020F3CFFA
:10078000792F1F932F933F934F93112411272227E3
:1007900033274427552790E2AE17BF078607410746
:1007A00030F0AE1BBF0B860B410B089401C0889440
:1007B000551F221F331F111CAA1FBB1F881F441F58
:1007C0009A9551F7F901612D4F913F912F911F910A
:1007D000662332F0550FEE1FFF1F661F7A9543F216
:1007E0007FDE5F91089599239AF0772342F097175F
:1007F00048F029F4AE17BF07860720F031F098942F
:100800008894089598940894089518948894089565
:100810007723C2F7971798F3A9F7EA17FB0768073A
:1008200088F399F3ECCFF09560957095E195FF4FC3
:100830006F4F7F4F08956F2F660F660B762F0895C9
:10084000ED91FC9111970895E881F9816A817B818E
:100850000895A881B9818A819B810895E883F983ED
:100860006A837B8308957A936A93FA93EA9308954F
:100870009A938A93BA93AA930895182E862F612D7E
:10088000192E972F712D1B2EBF2FF12D1A2EAE2F43
:10089000E12D08951A930A93089519810881089506
:00000001FF
