:100000000C942A000C943F000C943F000C943F0089
:100010000C943F000C943F000C943F000C943F0064
:100020000C943F000C943F000C943F000C943F0054
:100030000C943F000C943F000C943F000C943F0044
:100040000C943F000C943F000C943F000C943F0034
:100050000C943F0011241FBECFE5D8E0DEBFCDBF1A
:1000600010E0A0E6B0E0EAEBF3E002C005900D92EC
:10007000A037B107D9F70E9441000C94DB010C9422
:100080000000CF93DF93CDB7DEB760970FB6F8943B
:10009000DEBF0FBECDBF80E1E0E6F0E0DE011196ED
:1000A00001900D928A95E1F78FEF84BB81BB1ABA5C
:1000B00086B1806886B986B1806486B986B184B11C
:1000C00065B170E0762F6627680F711D072E000C52
:1000D000880B990B0E94E20020E030E040EA50E4F7
:1000E0000E94460120E030E040E85AE30E944601C9
:1000F00020E030E040E251E40E9446010E94B1005D
:1001000012BA8DEC689F812D11248695869586956F
:10011000E1E0F0E0EC0FFD1FE80FF11D9081906829
:1001200095BB91E092BBEFE0F7E23197F1F700C0A9
:10013000000012BA880F982F990F990F890F681B2A
:10014000E1E0F0E0EC0FFD1FE60FF11D808185BBC3
:1001500082E082BB8FE097E20197F1F700C00000D8
:10016000AACF0E94250188F09F5798F0B92F9927B0
:10017000B751B0F0E1F0660F771F881F991F1AF092
:10018000BA95C9F714C0B13091F00E943F01B1E0B7
:1001900008950C943F01672F782F8827B85F39F0B6
:1001A000B93FCCF3869577956795B395D9F73EF42B
:1001B00090958095709561957F4F8F4F9F4F0895D3
:1001C000E89409C097FB3EF49095809570956195F1
:1001D0007F4F8F4F9F4F9923A9F0F92F96E9BB27A7
:1001E0009395F695879577956795B795F111F8CF23
:1001F000FAF4BB0F11F460FF1BC06F5F7F4F8F4F8E
:100200009F4F16C0882311F096E911C0772321F083
:100210009EE8872F762F05C0662371F096E8862F1B
:1002200070E060E02AF09A95660F771F881FDAF772
:10023000880F9695879597F9089557FD9058440F24
:10024000551F59F05F3F71F04795880F97FB991F35
:1002500061F09F3F79F087950895121613061406F2
:10026000551FF2CF4695F1DF08C01616170618067F
:10027000991FF1CF86957105610508940895E8945A
:10028000BB2766277727CB0197F908950E9459016C
:100290000C94CA010E94BC0138F00E94C30120F0F6
:1002A000952311F00C94B3010C94B90111240C9412
:1002B00040010E941D0170F3959FC1F3950F50E01E
:1002C000551F629FF001729FBB27F00DB11D639F08
:1002D000AA27F00DB11DAA1F649F6627B00DA11DAE
:1002E000661F829F2227B00DA11D621F739FB00D54
:1002F000A11D621F839FA00D611D221F749F3327C4
:10030000A00D611D231F849F600D211D822F762F5C
:100310006A2F11249F5750409AF0F1F088234AF039
:10032000EE0FFF1FBB1F661F771F881F91505040A5
:10033000A9F79E3F510580F00C94B3010C94400145
:100340005F3FE4F3983ED4F3869577956795B7952C
:10035000F795E7959F5FC1F7FE2B880F911D969546
:10036000879597F9089597F99F6780E870E060E0B6
:1003700008959FEF80EC089500240A94161617063E
:1003800018060906089500240A9412161306140686
:1003900005060895092E0394000C11F4882352F0E9
:1003A000BB0F40F4BF2B11F460FF04C06F5F7F4FA1
:0A03B0008F4F9F4F0895F894FFCF80
:1003BA003F065B4F666D7D077F6F777C395E79718B
:00000001FF
