:100000000C942A000C9434000C9434000C943400AA
:100010000C9434000C9434000C9434000C94340090
:100020000C9434000C9434000C9434000C94340080
:100030000C9434000C9434000C9434000C94340070
:100040000C9434000C9434000C9434000C94340060
:100050000C94340011241FBECFE5D8E0DEBFCDBF25
:100060000E9436000C9454000C9400008FEF81BB6A
:100070008FEF82BB87ED96ED0197F1F700C000008E
:1000800087ED96ED0197F1F700C0000012BA87EDF9
:1000900096ED0197F1F700C0000087ED96ED01970E
:0C00A000F1F700C00000E4CFF894FFCF9F
:00000001FF
