:100000000C942A000C9449000C9447000C9447006F
:100010000C9447000C9447000C9447000C94470044
:100020000C9447000C9447000C9447000C94470034
:100030000C9447000C9447000C9447000C94470024
:100040000C9447000C9447000C9447000C94470014
:100050000C94470011241FBECFE5D8E0DEBFCDBF12
:1000600010E0A0E6B0E0E2EEF2E002C005900D92F2
:10007000A038B107D9F720E0A0E8B0E001C01D9298
:10008000A438B207E1F70E94AA000C946F010C9407
:1000900000001F920F920FB60F9211248F939F931F
:1000A0008091800090918100019769F41EBC8CB50D
:1000B0009DB590938300809382001DBC1CBC109260
:1000C0008100109280008091800090918100892BA6
:1000D00049F48EB581608EBD81E090E090938100FF
:1000E000809380009F918F910F900FBE0F901F9073
:1000F000189588BB82B38F7B82BB82B3806282BB40
:100100008FEC97E00197F1F700C0000082B3807C8C
:1001100082BB18BA089588BB82B3806482BB82B365
:10012000806282BB8FEC97E00197F1F700C000007E
:1001300082B3807C82BB18BA0895CF93DF93EC0121
:1001400003C021960E948B0088818111FACFDF9134
:10015000CF910895CF93DF93CDB7DEB760970FB6F9
:10016000F894DEBF0FBECDBF8FEF8ABB87BB8BEF8E
:1001700081BB83ED90E30197F1F700C000008BB7DE
:1001800080648BBF85B7816085BF1FBC81E00E9402
:10019000790083ED90E30197F1F700C0000088E358
:1001A0000E94790083ED90E30197F1F700C0000011
:1001B0008FE00E94790083ED90E30197F1F700C092
:1001C0000000789482B3816082BB95E09A95F1F744
:1001D00082B38E7F82BB80918200909183006AE31C
:1001E00070E00E9412018B0180E690E00E949D0069
:1001F00080EC0E9479008FE690E00E949D004AE02A
:10020000BE016F5F7F4FC8010E943A01CE01019687
:100210000E949D0089E790E00E949D0080E80E9476
:100220007900D0CF97FB072E16F4009407D077FD06
:1002300009D00E94260107FC05D03EF490958195D7
:100240009F4F0895709561957F4F0895AA1BBB1B22
:1002500051E107C0AA1FBB1FA617B70710F0A61BC6
:10026000B70B881F991F5A95A9F780959095BC01E7
:10027000CD010895BB274A3031F4992322F4BDE221
:10028000909581959F4F0C944601BB27FB01552704
:10029000AA27880F991FAA1FA41710F0A41B8395E3
:1002A0005051B9F7A05DAA3308F0A95DA19300975A
:1002B00079F7B111B1931192CB010C945F01DC017C
:1002C000FC01672F71917723E1F7329704C07C918D
:1002D0006D9370836291AE17BF07C8F30895F894C9
:0202E000FFCF4E
:1002E20043495243554954204449474553540044D5
:1002F200495354414E43453D00636D202020200068
:00000001FF
