:100000000C942A000C943F000C943F000C943F0089
:100010000C943F000C943F000C943F000C943F0064
:100020000C943F000C943F000C943F000C943F0054
:100030000C943F000C943F000C943F000C943F0044
:100040000C943F000C943F000C943F000C943F0034
:100050000C943F0011241FBECFE5D8E0DEBFCDBF1A
:1000600010E0A0E6B0E0EEEBF3E002C005900D92E8
:10007000AA38B107D9F70E9472000C94DD010C94E4
:1000800000008BBB82B38F7B82BB82B3806282BB5A
:1000900087E893E10197F1F700C0000082B3807C0C
:1000A00082BB1BBA08958BBB82B3806482BB82B3D0
:1000B000806282BB87E893E10197F1F700C00000FE
:1000C00082B3807C82BB1BBA0895CF93DF93EC018F
:1000D00003C021960E94530088818111FACFDF91DD
:1000E000CF910895CF93DF93CDB7DEB768970FB662
:1000F000F894DEBF0FBECDBF8FEF8ABB87BB88B33E
:10010000836088BB8EEF81BB83ED90E30197F1F7AD
:1001100000C000008AB180698AB980B5866880BD58
:1001200080B58F7B80BD80B58F7780BD86E089B933
:1001300084E1E0E6F0E0DE01119601900D928A95EF
:10014000E1F781E00E944100E3EDF0E33197F1F740
:1001500000C0000088E30E94410083ED90E3019716
:10016000F1F700C000008FE00E944100E3EDF0E3F2
:100170003197F1F700C0000084E790E00E9465002D
:1001800080EC0E9441005F9BFECF8CB1E82E40E1E5
:10019000BE016B5E7F4F90E00E94A801CE014596A4
:1001A0000E9465005F9BFECF0CB140E1BE016B5E1B
:1001B0007F4F802F90E00E94A801CE0145960E94BB
:1001C00065005F9BFECFFCB040E1BE016B5E7F4FE0
:1001D0008F2D90E00E94A801CE0145960E946500F7
:1001E0005F9BFECF1CB140E1BE016B5E7F4F812F54
:1001F00090E00E94A801CE0145960E94650080E82B
:1002000090E00E94650080EC0E9441008AB18F7EE0
:100210008AB980E090E094C0FC01EE0FFF1FEE0F62
:10022000FF1F21E030E02C0F3D1FE20FF31F208164
:10023000502F418131E0E21230E021E0541320E000
:100240003223FC01EE0FFF1FEE0FFF1F41E050E0D5
:100250004C0F5D1FE40FF51F428121E0F41220E0F6
:10026000FC01EE0FFF1FEE0FFF1F41E050E04C0FAF
:100270005D1FE40FF51F538141E0151340E0232378
:1002800009F45DC0442309F45AC028B3286028BB90
:1002900028B32E7F28BBE7EDF6ED3197F1F700C0CC
:1002A0000000E7EDF6ED3197F1F700C00000E7ED53
:1002B000F6ED3197F1F700C00000E7EDF6ED31976C
:1002C000F1F700C00000E7EDF6ED3197F1F700C05F
:1002D0000000E7EDF6ED3197F1F700C0000028B31C
:1002E000216028BB28B32D7F28BBE7EDF6ED3197C1
:1002F000F1F700C00000E7EDF6ED3197F1F700C02F
:100300000000E7EDF6ED3197F1F700C00000E7EDF2
:10031000F6ED3197F1F700C00000E7EDF6ED31970B
:10032000F1F700C00000E7EDF6ED3197F1F700C0FE
:10033000000028B3277F28BB28B3226028BB019682
:10034000853091050CF468CF8AB180618AB91BCFE2
:10035000BB274A3031F4992322F4BDE29095819570
:100360009F4F0C94B401BB27FB015527AA27880F88
:10037000991FAA1FA41710F0A41B83955051B9F719
:10038000A05DAA3308F0A95DA193009779F7B11198
:10039000B1931192CB010C94CD01DC01FC01672FCC
:1003A00071917723E1F7329704C07C916D9370834C
:0E03B0006291AE17BF07C8F30895F894FFCF0F
:1003BE0097A1909297A1909397A1909497A19095C1
:1003CE0097A1909652464944204E554D42455200B3
:0A03DE002020202020202020000015
:00000001FF
