:100000000C942A000C943F000C943F000C943F0089
:100010000C943F000C943F000C943F000C943F0064
:100020000C943F000C943F000C943F000C943F0054
:100030000C943F000C943F000C943F000C943F0044
:100040000C943F000C943F000C943F000C943F0034
:100050000C943F0011241FBECFE5D8E0DEBFCDBF1A
:1000600010E0A0E6B0E0E8E0F2E002C005900D92FA
:10007000A038B107D9F70E9472000C9402010C94C9
:10008000000088BB82B38F7B82BB82B3806282BB5D
:1000900087E893E10197F1F700C0000082B3807C0C
:1000A00082BB18BA089588BB82B3806482BB82B3D6
:1000B000806282BB87E893E10197F1F700C00000FE
:1000C00082B3807C82BB18BA0895CF93DF93EC0192
:1000D00003C021960E94530088818111FACFDF91DD
:1000E000CF910895CF93DF9300D01F92CDB7DEB7A5
:1000F0008FEF87BB1ABA81BB83ED90E30197F1F7CD
:1001000000C0000087B1806C87B986B1876A86B964
:1001100081E00E94410083ED90E30197F1F700C078
:10012000000088E30E94410083ED90E30197F1F71E
:1001300000C000008FE00E94410083ED90E3019732
:10014000F1F700C0000086B1806486B904B115B132
:10015000169507951695079580E690E00E94650034
:1001600080EC0E9441008FE690E00E94650088ECE0
:100170000E9441004AE0BE016F5F7F4FC8010E94AC
:10018000CD00CE0101960E94650088E790E00E94B4
:10019000650080E80E944100D9CFBB274A3031F486
:1001A000992322F4BDE2909581959F4F0C94D9003C
:1001B000BB27FB015527AA27880F991FAA1FA41741
:1001C00010F0A41B83955051B9F7A05DAA3308F035
:1001D000A95DA193009779F7B111B1931192CB0169
:1001E0000C94F200DC01FC01672F71917723E1F799
:1001F000329704C07C916D9370836291AE17BF07F4
:08020000C8F30895F894FFCF44
:10020800434952435549542044494745535400549F
:10021800656D702843293D00202020202020000003
:00000001FF
