:100000000C942A000C943F000C943F000C943F0089
:100010000C943F000C943F000C943F000C943F0064
:100020000C943F000C943F000C943F000C943F0054
:100030000C943F000C943F000C943F000C943F0044
:100040000C943F000C943F000C943F000C943F0034
:100050000C943F0011241FBECFE5D8E0DEBFCDBF1A
:1000600010E0A0E6B0E0ECE9F4E002C005900D92EB
:10007000A63BB107D9F70E9472000C944C020C9475
:1000800000008BBB82B38F7B82BB82B3806282BB5A
:1000900087E893E10197F1F700C0000082B3807C0C
:1000A00082BB1BBA08958BBB82B3806482BB82B3D0
:1000B000806282BB87E893E10197F1F700C00000FE
:1000C00082B3807C82BB1BBA0895CF93DF93EC018F
:1000D00003C021960E94530088818111FACFDF91DD
:1000E000CF910895CF93DF93CDB7DEB7A8970FB622
:1000F000F894DEBF0FBECDBF8FEF8ABB80EF87BB0A
:100100008EEF81BB83ED90E30197F1F700C0000013
:100110008AB180698AB980B5866880BD80B58F7BD9
:1001200080BD80B58F7780BD86E089B984E1E0E647
:10013000F0E0DE01119601900D928A95E1F781E0E1
:100140000E944100E3EDF0E33197F1F700C00000B9
:1001500088E30E94410083ED90E30197F1F700C02E
:1001600000008FE00E944100E3EDF0E33197F1F7EA
:1001700000C0000084E790E00E94650080EC0E94CF
:100180004100812C912CA12CB12CC12CD12CE12C23
:10019000F12C00E010E05F9BFECF8CB1482E40E1D7
:1001A000BE016B5E7F4F90E00E941702CE01459624
:1001B0000E9465005F9BFECF6CB040E1BE016B5EAC
:1001C0007F4F862D90E00E941702CE0145960E9437
:1001D00065005F9BFECF5CB040E1BE016B5E7F4F70
:1001E000852D90E00E941702CE0145960E94650081
:1001F0005F9BFECF7CB040E1BE016B5E7F4F872DE1
:1002000090E00E941702CE0145960E94650080E8AA
:1002100090E00E94650080EC0E9441008AB18F7ED0
:100220008AB980E090E03DC0FC01EE0FFF1FEE0FA9
:10023000FF1F21E030E02C0F3D1FE20FF31F208154
:10024000562D418131E0421230E021E0541320E08C
:100250003223FC01EE0FFF1FEE0FFF1F41E050E0C5
:100260004C0F5D1FE40FF51F428121E0541220E086
:10027000FC01EE0FFF1FEE0FFF1F41E050E04C0F9F
:100280005D1FE40FF51F538141E0751240E0232309
:1002900039F0442329F028B3206128BB01E010E0A5
:1002A0000196853091050CF4BFCF0115110509F0B9
:1002B000B9C08AB180618AB9B5C080E80E944100A6
:1002C00089E890E00E946500B09905C05FEFE51AEB
:1002D000F50A00E010E0B19905C08FEFC81AD80AFE
:1002E00000E010E0B29905C09FEFA91AB90A00E03A
:1002F00010E0B39905C0EFEF8E1A9E0A00E010E0FF
:100300000115110509F08EC080E80E94410089E9BD
:1003100090E00E94650080E090E007C0E7EDF6ED18
:100320003197F1F700C0000001968A309105B4F3CF
:1003300088B38F7E88BB81E00E94410080E80E94E4
:1003400041008AEA90E00E94650082E80E94410034
:100350004AE0BE01675E7F4FC7010E941702CE01CF
:1003600049960E94650088E80E9441008DEA90E06D
:100370000E9465008AE80E9441004AE0BE01635E77
:100380007F4FC6010E941702CE014D960E94650064
:1003900080EC0E94410080EB90E00E94650082ECBE
:1003A0000E9441004AE0BE016F5D7F4FC5010E947F
:1003B0001702CE0181960E94650088EC0E944100E0
:1003C00083EB90E00E9465008AEC0E9441004AE0C5
:1003D000BE016B5D7F4FC4010E941702CE0185965E
:1003E0000E94650080ED0E94410080E090E007C01F
:1003F000E7EDF6ED3197F1F700C000000196893185
:100400009105B4F38AB180618AB981E00E9441000C
:1004100080E80E94410084E790E00E94650080EC43
:100420000E9441000130110509F447CFB4CEBB272B
:100430004A3031F4992322F4BDE2909581959F4F83
:100440000C942302BB27FB015527AA27880F991F6D
:10045000AA1FA41710F0A41B83955051B9F7A05DF3
:10046000AA3308F0A95DA193009779F7B111B19370
:100470001192CB010C943C02DC01FC01672F7191BD
:100480007723E1F7329704C07C916D93708362917A
:0C049000AE17BF07C8F30895F894FFCF23
:10049C0097A1909297A1909397A1909497A19095E2
:1004AC0097A1909652464944204E554D42455200D4
:1004BC00202020202020202000564F5445204E4F35
:1004CC005720202020202020005448414E4B2055FE
:1004DC0020464F5220564F544500413D00423D00AE
:0604EC00433D00443D0009
:00000001FF
