:100000000C942A000C9434000C9434000C943400AA
:100010000C9434000C9434000C9434000C94340090
:100020000C9434000C9434000C9434000C94340080
:100030000C9434000C9434000C9434000C94340070
:100040000C9434000C9434000C9434000C94340060
:100050000C94340011241FBECFE5D4E0DEBFCDBF29
:100060000E943C000C9456000C94000089E683BF6B
:1000700087B3886087BB08950E94360080E008C07F
:100080008CBFEFE7FEE33197F1F700C000008F5F10
:100090008F3FB1F708C08CBFEFE7FEE33197F1F770
:1000A00000C0000081508230B0F7E8CFF894FFCF55
:00000001FF
