:100000000C942A000C9434000C9434000C943400AA
:100010000C9434000C9434000C9434000C94340090
:100020000C9434000C9434000C9434000C94340080
:100030000C9434000C9434000C9434000C94340070
:100040000C9434000C9434000C9434000C94340060
:100050000C94340011241FBECFE5D4E0DEBFCDBF29
:100060000E9443000C944E000C94000080E487B979
:1000700086B1806486B9349BFECF86B1806186B933
:1000800084B195B108958FEF85BB80E487B987E887
:1000900086B980E00E94360085BBFBCFF894FFCF85
:00000001FF
