:100000000C942A000C9434000C9434000C943400AA
:100010000C9434000C9434000C9434000C94340090
:100020000C9434000C9434000C9434000C94340080
:100030000C9434000C9434000C9434000C94340070
:100040000C9434000C9434000C9434000C94340060
:100050000C94340011241FBECFE5D4E0DEBFCDBF29
:100060000E9436000C94EB000C9400008FE08ABBD9
:1000700080E090E041C029E02BBBEFEBFDE531973C
:10008000F1F700C0000028E02BBBEFEBFDE5319756
:10009000F1F700C000002CE02BBBEFEBFDE5319742
:1000A000F1F700C0000024E02BBBEFEBFDE531973A
:1000B000F1F700C0000026E02BBBEFEBFDE5319728
:1000C000F1F700C0000022E02BBBEFEBFDE531971C
:1000D000F1F700C0000023E02BBBEFEBFDE531970B
:1000E000F1F700C0000021E02BBBEFEBFDE53197FD
:1000F000F1F700C000000196823391050CF4BBCFEC
:1001000089E08BBB8FEB9DE50197F1F700C0000004
:100110009FEFE3EDF0E39150E040F040E1F700C0E5
:10012000000080E090E041C021E02BBBEFEBFDE55B
:100130003197F1F700C0000023E02BBBEFEBFDE5AA
:100140003197F1F700C0000022E02BBBEFEBFDE59B
:100150003197F1F700C0000026E02BBBEFEBFDE587
:100160003197F1F700C0000024E02BBBEFEBFDE579
:100170003197F1F700C000002CE02BBBEFEBFDE561
:100180003197F1F700C0000028E02BBBEFEBFDE555
:100190003197F1F700C0000029E02BBBEFEBFDE544
:1001A0003197F1F700C000000196823391050CF4FD
:1001B000BBCF89E08BBB8FEB9DE50197F1F700C0CA
:1001C00000009FEFE3EDF0E39150E040F040E1F7F5
:0A01D00000C000004DCFF894FFCFEF
:00000001FF
