:100000000C942A000C9447000C9447000C94470071
:100010000C9447000C9447000C9447000C94470044
:100020000C9447000C9447000C9447000C94470034
:100030000C9447000C94D3000C9447000C94470098
:100040000C9447000C9447000C9447000C94470014
:100050000C94470011241FBECFE5D8E0DEBFCDBF12
:1000600013E0A0E6B0E0E4EAF7E102C005900D92EB
:10007000A831B107D9F723E0A8E1B3E001C01D9290
:10008000A636B207E1F70E9442080C94D00B0C94FC
:100090000000982F907F98BB98B39D7F98BB6130EC
:1000A00021F498B3916098BB03C098B39E7F98BB2E
:1000B00098B3946098BBEFE0F7E23197F1F700C096
:1000C000000098B39B7F98BBEFE1FEE43197F1F716
:1000D00000C00000F0E18F9FC001112488BB88B3ED
:1000E0008D7F88BB613021F488B3816088BB03C0F9
:1000F00088B38E7F88BB88B3846088BB8FE097E22B
:100100000197F1F700C0000088B38B7F88BBEFE157
:10011000FEE43197F1F700C000000895CF93DF931C
:10012000EC0104C0219661E00E94490088818111A0
:10013000F9CFDF91CF9108950F931F93CF93DF9362
:1001400000D000D01F92CDB7DEB785E0E1E8F0E047
:10015000DE01119601900D928A95E1F700E010E022
:100160000CC0E1E0F0E0EC0FFD1FE00FF11F60E0DC
:1001700080810E9449000F5F1F4F0530110588F3F1
:100180000F900F900F900F900F90DF91CF911F91D4
:100190000F91089586E880BD10BC83E389B988E992
:1001A0008AB9789408951F920F920FB60F92112476
:1001B0002F934F935F938F939F93EF93FF932CB164
:1001C00080912A0390912B03AC014F5F5F4F5093B6
:1001D0002B0340932A03FC01E05BFC4F20838091BA
:1001E0002A0390912B03892B31F081E090E09093CA
:1001F000290380932803FF91EF919F918F915F9145
:100200004F912F910F900FBE0F901F9018955D9BEF
:10021000FECF8CB9089580E090E005C0FC01E05B62
:10022000FC4F1082019684319105C0F3089592B37A
:100230009F7792BBEFECF0E03197F1F700C0000040
:1002400020E030E012C080FF04C092B3906892BBFF
:1002500003C092B39F7792BBEFECF0E03197F1F7D8
:1002600000C0000086952F5F3F4F283031055CF3BA
:1002700082B3806882BB8FEC90E00197F1F700C0F9
:1002800000000895CF93DF93EC0103C00E94170193
:10029000219688818111FACFDF91CF9108950E9434
:1002A00042018DE00E9417018AE00E941701089523
:1002B000282F22952F7030E0A901440F551F220FDF
:1002C000331F220F331F220F331F240F351F8F7050
:1002D000A901480F511DCA01089584E986BF0895F8
:1002E00084EA86BF06B607FEFDCF80ED83B984E8B9
:1002F00086BF06B607FEFDCF13B884E886BF06B6F4
:1003000007FEFDCF84EA86BF06B607FEFDCF81ED6E
:1003100083B984E886BF06B607FEFDCF089586B789
:10032000806C86BF06B607FEFDCF83B10E945801E0
:10033000089586B7806886BF86B7806486BF06B694
:1003400007FEFDCF83B10E945801089586B7806CE7
:1003500086BF06B607FEFDCF83B10E9458010895FF
:1003600086B7806C86BF06B607FEFDCF83B10E94BC
:100370005801089586B7806C86BF06B607FEFDCF8C
:1003800083B10E945801089586B7806C86BF06B677
:1003900007FEFDCF83B10E945801089586B780689B
:1003A00086BF86B78F7B86BF06B607FEFDCF83B1BB
:1003B0000E9458010895CF92DF92EF92FF920F931F
:1003C0001F93CF93DF93CDB7DEB764970FB6F89442
:1003D000DEBF0FBECDBF0AE113E0F80181818F932C
:1003E00080818F930F2EFBEEEF2EF0E0FF2EF02D8D
:1003F000FF92EF92CE0101966C019F938F930E9422
:10040000E60860E080E80E94490086E890E00E94EB
:100410008E00C6010E948E0061E08AE30E944900BE
:10042000F80183818F9382818F93FF92EF92DF9205
:10043000CF920E94E608C6010E948E0061E08AE326
:100440000E944900F80185818F9384818F93FF92E8
:10045000EF92DF92CF920E94E608C6010E948E00C2
:100460008CEC91E00E948E0060E080EC0E944900DC
:100470008CE890E00E948E00F80187818F9386813E
:100480008F93FF92EF92DF92CF920E94E608C6010F
:100490000E948E0061E08FE20E944900F801818590
:1004A0008F9380858F93FF92EF92DF92CF920E947D
:1004B000E608C6010E948E0061E08FE20E944900BA
:1004C000F80183858F9382858F93FF92EF92DF925D
:1004D000CF920E94E6080FB6F894DEBF0FBECDBFE4
:1004E00082E990E00E948E00F801828593850A9748
:1004F00024F461E080E30E944900CE0101960E944D
:100500008E008BEC91E00E948E0064960FB6F894FA
:10051000DEBF0FBECDBFDF91CF911F910F91FF9036
:10052000EF90DF90CF900895CF93DF930E947001FA
:100530000E948F01CAE1D3E09D838C830E949901C0
:100540009B838A830E94A601998388830E94B001BD
:1005500090934F0380934E030E94BA019F838E8332
:100560000E94C401998788870E94CE019B878A8751
:100570000E946D010E94DB01DF91CF910895E19906
:10058000FECF9FBB8EBB6DBB8CB384608CBB8CB32A
:1005900082608CBB80E090E00895E199FECF9FBB24
:1005A0008EBB8CB381608CBB8DB30895CF92DF92EC
:1005B000EF92FF920F931F93CF93DF936C010E94F2
:1005C000CD02082F10E00115110511F401E010E033
:1005D0007801EE0CFF1CE00EF11EEE0CFF1C9601E4
:1005E0002150310940E3429FC001439F900D1124E7
:1005F000E80EF91EC0E0D0E00CC0FE01EE0FFF1FB8
:10060000E65EFC4F6081CE018E0D9F1D0E94BF02F1
:100610002196C630D1058CF361E0600FC6010E94BF
:10062000BF02DF91CF911F910F91FF90EF90DF906C
:10063000CF900895EF92FF920F931F93CF93DF9384
:100640007C018B010E940B0110922B0310922A0354
:100650002FEF80E792E0215080409040E1F700C00A
:100660000000C0E0D0E007C0F701EC0FFD1F808163
:100670000E9407012196C017D107B4F32FEF89E636
:1006800098E1215080409040E1F700C00000809147
:10069000280390912903019709F04CC080915003E1
:1006A0008F3EA1F580915103813099F580915603D9
:1006B000873091F580915903811131C0E0E5F3E075
:1006C000278130E0322F22278085282B80E090E0A0
:1006D00005C0FC01EE5BFC4F108201968217930768
:1006E000C0F380E090E009C0FC01E65AFC4F408175
:1006F000FC01EE5BFC4F40830196A9014250510979
:100700008417950788F380E090E00BC081E090E0CB
:1007100008C081E090E005C081E090E002C081E087
:1007200090E010922B0310922A031092290310924A
:10073000280302C081E090E0DF91CF911F910F91DB
:10074000FF90EF90089560E080E80E94490085E9FD
:1007500090E00E948E0060E080EC0E94490085EAF3
:1007600090E00E948E008FE19EE40197F1F700C0B7
:100770000000089525B32C5F25BB20E030E008C0C1
:10078000EFECF7E03197F1F700C000002F5F3F4F2B
:1007900028173907A8F385B38B7F85BB0895CF93BE
:1007A000DF9360E081E00E944900C0E0D0E0C8999A
:1007B00006C0219688EC90E00E94BA030AC0C9994D
:1007C00006C0219788EC90E00E94BA0302C0CB9B40
:1007D00024C060E080E80E944900DF93CF9385EB5E
:1007E00090E09F938F938CE293E09F938F930E946E
:1007F000E6088CE293E00E948E009FEF21EE84E0F9
:10080000915020408040E1F700C000000F900F9011
:100810000F900F900F900F90CACF88EC90E00E943D
:10082000BA03CE01DF91CF9108950E94CF03909338
:10083000800080937F00E0E6F0E0928783879C0150
:100840002B5E3F4F36878B5E878760E170E0CF017C
:100850000E941A03892B39F560E081E00E9449006B
:10086000809180008F9380917F008F9383EC90E044
:100870009F938F938CE293E09F938F930E94E6085F
:100880008CE293E00E948E0060E080EC0E944900C0
:1008900081ED90E00E948E000F900F900F900F90CE
:1008A0000F900F9008C060E081E00E94490081EE47
:1008B00090E00E948E002FEF83ED90E32150804066
:1008C0009040E1F700C000000895CF93DF936CE003
:1008D00070E08CEF92E00E941A03892B09F08BC024
:1008E0006DE070E08FEE92E00E941A03892B09F010
:1008F00070C061E170E085EC92E00E941A03892BE0
:1009000009F054C085B3885F85BB88EC90E00E94F5
:10091000BA03E2E4F3E0C081D0E0DC2FCC27818190
:10092000C80FD11DDF93CF9387EE90E09F938F93F5
:100930008CE293E09F938F930E94E60860E081E051
:100940000E9449008CE293E00E948E008C2F9D2F24
:100950000E94D6029FEF29E688E191502040804016
:10096000E1F700C0000060E081E00E9449008EEEE7
:1009700090E00E948E0060E080EC0E94490089EFC8
:1009800090E00E948E009FEF23ED80E39150204085
:100990008040E1F700C0000085B3877F85BB0F90E2
:1009A0000F900F900F900F900F9025C085B3885F28
:1009B00085BB60E081E00E94490082EB92E00E94EA
:1009C0008E0088E893E10E94BA0385B3877F85BBD8
:1009D00012C085B3885F85BB60E081E00E9449005A
:1009E00082EB92E00E948E0080ED97E00E94BA03B5
:1009F00085B3877F85BBDF91CF910895CF93DF9338
:100A000060E081E00E94490087E990E00E948E004A
:100A10002FEF83ED90E3215080409040E1F700C03C
:100A2000000060E081E00E94490084E091E00E94C3
:100A30008E0060E080EC0E9449002FEF89E698E18B
:100A4000215080409040E1F700C00000C0E0D0E0BD
:100A5000D2C06CE070E08CEF92E00E941A03892B08
:100A600009F0BDC06DE070E08FEE92E00E941A03C5
:100A7000892B09F0C4C060E080EC0E94490081E14C
:100A800091E00E948E002FEF89E698E1215080408E
:100A90009040E1F700C0000060E081E00E94490062
:100AA00084E091E00E948E0060E080EC0E944900AA
:100AB00081E291E00E948E002FEF83ED90E32150C0
:100AC00080409040E1F700C000006CE070E08CEFE7
:100AD00092E00E941A03892B09F091C06DE070E04A
:100AE00082EE92E00E941A03892B09F073C060E045
:100AF00081E00E94490081E191E00E948E002FEF89
:100B000089E698E1215080409040E1F700C0000064
:100B10006CE070E086ED92E00E941A03892B09F0E8
:100B200054C00E94CF0380937F0090938000E0E741
:100B3000F0E093878487825F86876FE070E0CF0163
:100B40000E941A03892BA1F588EC90E00E94BA0359
:100B500060E081E00E9449008EE291E00E948E00F8
:100B600080917F00909180009F938F938CE391E020
:100B70009F938F938CE293E09F938F930E94E6085C
:100B800060E080EC0E9449008CE293E00E948E00BD
:100B90002FEF89E698E1215080409040E1F700C0B6
:100BA00000000F900F900F900F900F900F9027C0A4
:100BB00060E081E00E94490082E491E00E948E00A2
:100BC00088EB9BE00E94BA031AC081EE90E00E947D
:100BD0008E0015C081EE90E00E948E0010C0C230E1
:100BE000D10541F460E080EC0E94490084E591E089
:100BF0000E948E002196C330D1050CF42ACF2FEF2E
:100C000083ED90E3215080409040E1F700C0000068
:100C1000DF91CF9108952F923F924F925F926F9202
:100C20007F928F929F92AF92BF92CF92DF92EF927C
:100C3000FF920F931F93CF93DF93CDB7DEB7C159C8
:100C4000D1090FB6F894DEBF0FBECDBF60E081E0E2
:100C50000E9449008EE591E00E948E008DE691E0B1
:100C60000E944F018DEC91E00E944F018FE791E0CF
:100C70000E944F01EE24E394F12C9AC18701000FEA
:100C8000111F0E0D1F1D000F111FC8018B539F4F09
:100C90000E94CD02CF57DF4F8883C158D040C80192
:100CA0008C539F4F0E94CD02282EC8018D539F4F19
:100CB0000E94CD02382EC8018E539F4F0E94CD0254
:100CC000482EC8018F539F4F0E94CD02582EC80155
:100CD00080549F4F0E94CD02682EC8018B569F4FB3
:100CE0000E94CD02782EC8018C569F4F0E94CD02E3
:100CF000882EC8018D569F4F0E94CD02982EC801A4
:100D00008E569F4F0E94CD02CE57DF4F8883C25828
:100D1000D040C8018F569F4F0E94CD02CD57DF4F64
:100D20008883C358D040C80180579F4F0E94CD028E
:100D3000CC57DF4F8883C458D040C8018B599F4F90
:100D40000E94CD02CB57DF4F8883C558D040C801E1
:100D50008C599F4F0E94CD02CA57DF4F8883C658D7
:100D6000D040C8018D599F4F0E94CD02C957DF4F17
:100D70008883C758D040C8018E599F4F0E94CD022A
:100D8000C857DF4F8883C858D040C8018F599F4F3C
:100D90000E94CD02C757DF4F8883C958D040C80191
:100DA000805A9F4F0E94CD02C657DF4F8883CA5892
:100DB000D040C801C5960E94CD02C557DF4F888339
:100DC000CB58D040C801C4960E94CD02C457DF4F13
:100DD0008883CC58D040C801C3960E94CD02C35727
:100DE000DF4F8883CD58D040C801C2960E94CD0203
:100DF000C257DF4F8883CE58D040C801C1960E94A9
:100E0000CD02C157DF4F8883CF58D040C801C0966C
:100E10000E94CD02C057DF4F8883C059D040C8011F
:100E200005960E94CD02CF56DF4F8883C159D0402E
:100E3000C80104960E94CD02A82EC80103960E9404
:100E4000CD02B82EC80102960E94CD02C82EC8015C
:100E500001960E94CD02D82EC8010E94CD021F9299
:100E6000CF57DF4F2881C158D0402F931F922F9228
:100E70001F923F921F924F921F925F921F926F920A
:100E80001F927F921F928F921F929F921F92CE5716
:100E9000DF4F9881C258D0409F931F92CD57DF4FAC
:100EA0002881C358D0402F931F92CC57DF4F988191
:100EB000C458D0409F931F92CB57DF4F2881C5580D
:100EC000D0402F931F92CA57DF4F9881C658D04009
:100ED0009F931F92C957DF4F2881C758D0402F9347
:100EE0001F92C857DF4F9881C858D0409F931F92D8
:100EF000C757DF4F2881C958D0402F931F92C6573C
:100F0000DF4F9881CA58D0409F931F92C557DF4F3B
:100F10002881CB58D0402F931F92C457DF4F988120
:100F2000CC58D0409F931F92C357DF4F2881CD5894
:100F3000D0402F931F92C257DF4F9881CE58D04098
:100F40009F931F92C157DF4F2881CF58D0402F93D6
:100F50001F92C057DF4F9881C059D0409F931F9276
:100F6000CF56DF4F2881C159D0402F931F92AF92A7
:100F70001F92BF921F92CF921F92DF921F928F9368
:100F8000FF92EF928FEC91E09F938F938E010F5F12
:100F90001F4F1F930F930E94E6080FB6F894DEBF11
:100FA0000FBECDBFC8010E944F019FEFE91AF90A99
:100FB00029E0E216F1040CF461CE60E080EC0E94BE
:100FC00049008EE492E00E948E008FEF93ED20E3C3
:100FD000815090402040E1F700C00000CF56DF4F25
:100FE0000FB6F894DEBF0FBECDBFDF91CF911F913A
:100FF0000F91FF90EF90DF90CF90BF90AF909F90B8
:101000008F907F906F905F904F903F902F900895BA
:10101000CF93DF9360E081E00E94490083E592E096
:101020000E948E00C0E0D0E005C06AE0CE010E94C0
:10103000BF022196CF3FD105C4F32FEF83ED90E39C
:10104000215080409040E1F700C0000060E081E066
:101050000E94490082E692E00E948E0060E080ECEF
:101060000E94490081E792E00E948E002FEF83EDFD
:1010700090E3215080409040E1F700C00000DF91F4
:10108000CF9108958FEF84BB93E095BB90EF9ABB0F
:101090009FE09BBB87BB81B3805881BB82B38058E4
:1010A00082BB0E94CA008EE792E00E94420180ED5E
:1010B00097E00E94BA030E949C008DE892E00E9493
:1010C0008E0060E080EC0E9449008EE992E00E9470
:1010D0008E002FEF83ED90E3215080409040E1F7A8
:1010E00000C00000C99903C00E940B0603C0CB9B3F
:1010F0000E94080810922B0310922A0315C060E08A
:1011000081E00E9449008FEA92E00E948E002FEF5A
:1011100083ED90E3215080409040E1F700C0000053
:1011200010922B0310922A0360E170E088E093E0B4
:101130000E941A03892B19F760E081E00E944900A0
:101140008CEB92E00E948E002FEF89E698E121500F
:1011500080409040E1F700C000000E94A3032FEF01
:1011600083ED90E3215080409040E1F700C0000003
:1011700060E081E00E9449000E9494020E946504A0
:10118000CA9910C088EC90E00E94BA030E94FE0445
:101190002FEF83ED90E3215080409040E1F700C0B5
:1011A0000000EACFCB99E8CF88EC90E00E94BA0328
:1011B0000E94CF030E9415042FEF89E698E1215089
:1011C00080409040E1F700C00000D6CFAEE0B0E034
:1011D000ECEEF8E00C94A70B0D891E8986E08C8359
:1011E0001A8309838FEF9FE79E838D83AE01475E4D
:1011F0005F4F6F89788DCE0101960E940809EF81BB
:10120000F885E00FF11F10822E96E4E00C94C30BDA
:10121000ABE0B0E0EEE0F9E00C94990B6C017B01DF
:101220008A01FC0117821682838181FFCCC1CE0125
:1012300001963C01F6019381F70193FD859193FF9F
:1012400081917F01882309F4BAC1853239F493FD75
:10125000859193FF81917F01853229F4B60190E059
:101260000E94FF0AE7CF912C212C312CFFE1F315CE
:10127000D8F08B3279F038F4803279F08332A1F4EF
:10128000232D20611DC08D3261F0803369F4232D40
:10129000216016C0832D8260382EE32DE4603E2E3F
:1012A0002AC0F32DF8601DC037FC2DC020ED280F9B
:1012B0002A3040F08E32B9F436FC81C1232D2064EF
:1012C000322E19C036FE06C08AE0989E200D1124E9
:1012D000922E11C0EAE02E9E200D1124222EF32D15
:1012E000F0623F2E08C08C3621F4832D8068382EA2
:1012F00002C0883641F4F70193FD859193FF8191F7
:101300007F018111B3CF982F9F7D9554933028F49E
:101310000C5F1F4F9FE399830DC0833631F08337F5
:1013200071F0833509F059C021C0F80180818983AB
:101330000E5F1F4F88248394912C530113C0280102
:10134000F2E04F0E511CF801A080B18036FE03C0C0
:10135000692D70E002C06FEF7FEFC5010E94F40AB3
:101360004C018201F32DFF773F2E16C0280122E0A9
:10137000420E511CF801A080B18036FE03C0692DD9
:1013800070E002C06FEF7FEFC5010E94E90A4C01D7
:10139000F32DF0683F2E820133FC1BC0822D90E0BC
:1013A00088169906B0F4B60180E290E00E94FF0A28
:1013B0002A94F4CFF50137FC859137FE81915F01C6
:1013C000B60190E00E94FF0A21102A9421E0821ABF
:1013D00091088114910471F7E8C0843611F08936C0
:1013E00041F5F80137FE07C06081718182819381E8
:1013F0000C5F1F4F08C060817181072E000C880BA5
:10140000990B0E5F1F4FF32DFF763F2E97FF09C0FC
:1014100090958095709561957F4F8F4F9F4FF068A5
:101420003F2E2AE030E0A3010E943B0B882E861855
:1014300045C0853731F4232D2F7EB22E2AE030E0CF
:1014400025C0932D997FB92E8F36C1F018F48835B9
:1014500079F0B5C0803719F0883721F0B0C0E92F96
:10146000E061BE2EB4FE0DC0FB2DF460BF2E09C09E
:1014700034FE0AC0292F2660B22E06C028E030E0D4
:1014800005C020E130E002C020E132E0F801B7FE03
:1014900007C060817181828193810C5F1F4F06C0FC
:1014A0006081718180E090E00E5F1F4FA3010E9478
:1014B0003B0B882E8618FB2DFF773F2E36FE0DC086
:1014C000232D2E7FA22E891458F434FE0BC032FC3B
:1014D00009C0832D8E7EA82E05C0B82CA32C03C076
:1014E000B82C01C0B92CA4FE0FC0FE01E80DF11DFF
:1014F0008081803321F49A2D997EA92E09C0A2FE05
:1015000006C0B394B39404C08A2D867809F0B394CE
:10151000A3FC11C0A0FE06C0B21488F4280C922CC3
:101520009B180EC0B21460F4B60180E290E00E94F5
:10153000FF0AB394F7CFB21418F42B1802C0982CFA
:10154000212CA4FE10C0B60180E390E00E94FF0AA7
:10155000A2FE17C0A1FC03C088E790E002C088E5A6
:1015600090E0B6010CC08A2D867859F0A1FE02C029
:101570008BE201C080E2A7FC8DE2B60190E00E9400
:10158000FF0A891438F4B60180E390E00E94FF0A54
:101590009A94F7CF8A94F301E80DF11D8081B6018A
:1015A00090E00E94FF0A8110F5CF222009F442CE7C
:1015B000B60180E290E00E94FF0A2A94F6CFF6017D
:1015C0008681978102C08FEF9FEF2B96E2E10C940A
:1015D000B50BFC010590615070400110D8F7809563
:1015E00090958E0F9F1F0895FC01615070400190EF
:1015F0000110D8F7809590958E0F9F1F08950F9337
:101600001F93CF93DF93FB01238121FD03C08FEF55
:101610009FEF2CC022FF16C046815781248135815F
:101620004217530744F4A081B1819D012F5F3F4FC2
:10163000318320838C93268137812F5F3F4F3783FF
:10164000268314C08B01EC01FB010084F185E02DA1
:101650000995892BE1F6D80116968D919C911797E3
:10166000019617969C938E931697CE01DF91CF919A
:101670001F910F910895FA01AA27283051F12031C6
:1016800081F1E8946F936E7F6E5F7F4F8F4F9F4F16
:10169000AF4FB1E03ED0B4E03CD0670F781F891F58
:1016A0009A1FA11D680F791F8A1F911DA11D6A0F26
:1016B000711D811D911DA11D20D009F468943F91D9
:1016C0002AE0269F11243019305D3193DEF6CF01D8
:1016D0000895462F4770405D4193B3E00FD0C9F79E
:1016E000F6CF462F4F70405D4A3318F0495D31FD0B
:1016F0004052419302D0A9F7EACFB4E0A69597955E
:10170000879577956795BA95C9F700976105710533
:1017100008959B01AC010A2E06945795479537957D
:101720002795BA95C9F7620F731F841F951FA01DD7
:1017300008952F923F924F925F926F927F928F9275
:101740009F92AF92BF92CF92DF92EF92FF920F9350
:101750001F93CF93DF93CDB7DEB7CA1BDB0B0FB65A
:10176000F894DEBF0FBECDBF09942A883988488817
:101770005F846E847D848C849B84AA84B984C884AD
:10178000DF80EE80FD800C811B81AA81B981CE0FA4
:10179000D11D0FB6F894DEBF0FBECDBFED01089589
:0417A000F894FFCFEB
:1017A400EF01FFFFFFFF0100070C0000000100151F
:1017B400EF01FFFFFFFF01000606010001000E011B
:1017C4000002280E060154696D653A00446174658F
:1017D4003A00323000312D456E726F6C6C204669D0
:1017E4006E67657200322D64656C657465204669A8
:1017F4006E67657200456E7465722049643A2564AB
:1018040020200046696E67657220494420256420C3
:101814000044656C65746564205375636365737314
:10182400004572726F720049643A20256400417465
:1018340074656E64616E636500526567697374658F
:1018440072656400506C6163652046696E676572F9
:101854000046696E676572204465746563746564E7
:101864000020202020416761696E20202000466905
:101874006E6765722053746F7265640049643A251B
:10188400640046696E676572204E6F742053746FEE
:10189400726564004E6F2046696E67657200446F1E
:1018A400776E6C6F64696E672E2E2E2E00417474F1
:1018B400656E64616E6365205265636F7264005384
:1018C4002E4E6F202020202020202049443120202B
:1018D40020202020202020202020494432202020A5
:1018E4002020202020202020204964332020202074
:1018F4002020202020202020494434202020202083
:10190400202020202020204944352020202000258C
:10191400642020202025643A25643A25642020256B
:10192400642F25642F323025642020202025643A3A
:1019340025643A2564202025642F25642F32302520
:10194400642020202025643A25643A25642020253B
:10195400642F25642F323025642020202025643A0A
:1019640025643A2564202025642F25642F323025F0
:10197400642020202025643A25643A25642020250B
:10198400642F25642F323025642020202000446FEA
:101994006E6500506C6561736520576169742E2E05
:1019A4002E005265636F72642044656C65746564CF
:1019B400005375636365737366756C6C7900436972
:1019C4007263756974204469676573740041747443
:1019D400656E64616E636520537973746D0055732D
:1019E400696E672041565220616E6420465000465D
:1019F40050204E6F7420466F756E6400465020462A
:101A04006F756E6400EF01FFFFFFFF0100081B010B
:101A1400000000A300C8EF01FFFFFFFF0100030562
:101A24000009EF01FFFFFFFF01000402020009EFBC
:101A340001FFFFFFFF01000402010008EF01FFFFA7
:101A4400FFFF010003010005EF01FFFFFFFF01009D
:081A5400071300000000001B55
:00000001FF
